{
  "_format": "hh-sol-artifact-1",
  "contractName": "TuklasArtMarketplace",
  "sourceName": "contracts/Tuklas.sol",
  "abi": [
    {
      "inputs": [
        {
          "internalType": "address payable",
          "name": "_adminWallet",
          "type": "address"
        }
      ],
      "stateMutability": "nonpayable",
      "type": "constructor"
    },
    {
      "inputs": [
        {
          "internalType": "address",
          "name": "sender",
          "type": "address"
        },
        {
          "internalType": "uint256",
          "name": "tokenId",
          "type": "uint256"
        },
        {
          "internalType": "address",
          "name": "owner",
          "type": "address"
        }
      ],
      "name": "ERC721IncorrectOwner",
      "type": "error"
    },
    {
      "inputs": [
        {
          "internalType": "address",
          "name": "operator",
          "type": "address"
        },
        {
          "internalType": "uint256",
          "name": "tokenId",
          "type": "uint256"
        }
      ],
      "name": "ERC721InsufficientApproval",
      "type": "error"
    },
    {
      "inputs": [
        {
          "internalType": "address",
          "name": "approver",
          "type": "address"
        }
      ],
      "name": "ERC721InvalidApprover",
      "type": "error"
    },
    {
      "inputs": [
        {
          "internalType": "address",
          "name": "operator",
          "type": "address"
        }
      ],
      "name": "ERC721InvalidOperator",
      "type": "error"
    },
    {
      "inputs": [
        {
          "internalType": "address",
          "name": "owner",
          "type": "address"
        }
      ],
      "name": "ERC721InvalidOwner",
      "type": "error"
    },
    {
      "inputs": [
        {
          "internalType": "address",
          "name": "receiver",
          "type": "address"
        }
      ],
      "name": "ERC721InvalidReceiver",
      "type": "error"
    },
    {
      "inputs": [
        {
          "internalType": "address",
          "name": "sender",
          "type": "address"
        }
      ],
      "name": "ERC721InvalidSender",
      "type": "error"
    },
    {
      "inputs": [
        {
          "internalType": "uint256",
          "name": "tokenId",
          "type": "uint256"
        }
      ],
      "name": "ERC721NonexistentToken",
      "type": "error"
    },
    {
      "inputs": [
        {
          "internalType": "address",
          "name": "owner",
          "type": "address"
        }
      ],
      "name": "OwnableInvalidOwner",
      "type": "error"
    },
    {
      "inputs": [
        {
          "internalType": "address",
          "name": "account",
          "type": "address"
        }
      ],
      "name": "OwnableUnauthorizedAccount",
      "type": "error"
    },
    {
      "inputs": [],
      "name": "ReentrancyGuardReentrantCall",
      "type": "error"
    },
    {
      "anonymous": false,
      "inputs": [
        {
          "indexed": true,
          "internalType": "address",
          "name": "owner",
          "type": "address"
        },
        {
          "indexed": true,
          "internalType": "address",
          "name": "approved",
          "type": "address"
        },
        {
          "indexed": true,
          "internalType": "uint256",
          "name": "tokenId",
          "type": "uint256"
        }
      ],
      "name": "Approval",
      "type": "event"
    },
    {
      "anonymous": false,
      "inputs": [
        {
          "indexed": true,
          "internalType": "address",
          "name": "owner",
          "type": "address"
        },
        {
          "indexed": true,
          "internalType": "address",
          "name": "operator",
          "type": "address"
        },
        {
          "indexed": false,
          "internalType": "bool",
          "name": "approved",
          "type": "bool"
        }
      ],
      "name": "ApprovalForAll",
      "type": "event"
    },
    {
      "anonymous": false,
      "inputs": [
        {
          "indexed": false,
          "internalType": "uint256",
          "name": "artId",
          "type": "uint256"
        }
      ],
      "name": "ArtApproved",
      "type": "event"
    },
    {
      "anonymous": false,
      "inputs": [
        {
          "indexed": false,
          "internalType": "uint256",
          "name": "artId",
          "type": "uint256"
        },
        {
          "indexed": false,
          "internalType": "uint256",
          "name": "price",
          "type": "uint256"
        }
      ],
      "name": "ArtListedForSale",
      "type": "event"
    },
    {
      "anonymous": false,
      "inputs": [
        {
          "indexed": false,
          "internalType": "uint256",
          "name": "artId",
          "type": "uint256"
        },
        {
          "indexed": false,
          "internalType": "address",
          "name": "artist",
          "type": "address"
        }
      ],
      "name": "ArtMinted",
      "type": "event"
    },
    {
      "anonymous": false,
      "inputs": [
        {
          "indexed": false,
          "internalType": "uint256",
          "name": "artId",
          "type": "uint256"
        },
        {
          "indexed": false,
          "internalType": "address",
          "name": "buyer",
          "type": "address"
        },
        {
          "indexed": false,
          "internalType": "uint256",
          "name": "pricePaid",
          "type": "uint256"
        }
      ],
      "name": "ArtSold",
      "type": "event"
    },
    {
      "anonymous": false,
      "inputs": [
        {
          "indexed": false,
          "internalType": "uint256",
          "name": "artId",
          "type": "uint256"
        },
        {
          "indexed": false,
          "internalType": "string",
          "name": "title",
          "type": "string"
        },
        {
          "indexed": false,
          "internalType": "string",
          "name": "description",
          "type": "string"
        },
        {
          "indexed": false,
          "internalType": "address",
          "name": "artist",
          "type": "address"
        }
      ],
      "name": "ArtSubmitted",
      "type": "event"
    },
    {
      "anonymous": false,
      "inputs": [
        {
          "indexed": false,
          "internalType": "uint256",
          "name": "_fromTokenId",
          "type": "uint256"
        },
        {
          "indexed": false,
          "internalType": "uint256",
          "name": "_toTokenId",
          "type": "uint256"
        }
      ],
      "name": "BatchMetadataUpdate",
      "type": "event"
    },
    {
      "anonymous": false,
      "inputs": [
        {
          "indexed": false,
          "internalType": "address",
          "name": "from",
          "type": "address"
        },
        {
          "indexed": false,
          "internalType": "uint256",
          "name": "amount",
          "type": "uint256"
        }
      ],
      "name": "EtherReceived",
      "type": "event"
    },
    {
      "anonymous": false,
      "inputs": [
        {
          "indexed": false,
          "internalType": "uint256",
          "name": "_tokenId",
          "type": "uint256"
        }
      ],
      "name": "MetadataUpdate",
      "type": "event"
    },
    {
      "anonymous": false,
      "inputs": [
        {
          "indexed": true,
          "internalType": "address",
          "name": "previousOwner",
          "type": "address"
        },
        {
          "indexed": true,
          "internalType": "address",
          "name": "newOwner",
          "type": "address"
        }
      ],
      "name": "OwnershipTransferred",
      "type": "event"
    },
    {
      "anonymous": false,
      "inputs": [
        {
          "indexed": true,
          "internalType": "address",
          "name": "from",
          "type": "address"
        },
        {
          "indexed": true,
          "internalType": "address",
          "name": "to",
          "type": "address"
        },
        {
          "indexed": true,
          "internalType": "uint256",
          "name": "tokenId",
          "type": "uint256"
        }
      ],
      "name": "Transfer",
      "type": "event"
    },
    {
      "stateMutability": "payable",
      "type": "fallback"
    },
    {
      "inputs": [],
      "name": "adminWallet",
      "outputs": [
        {
          "internalType": "address payable",
          "name": "",
          "type": "address"
        }
      ],
      "stateMutability": "view",
      "type": "function"
    },
    {
      "inputs": [
        {
          "internalType": "address",
          "name": "to",
          "type": "address"
        },
        {
          "internalType": "uint256",
          "name": "tokenId",
          "type": "uint256"
        }
      ],
      "name": "approve",
      "outputs": [],
      "stateMutability": "nonpayable",
      "type": "function"
    },
    {
      "inputs": [
        {
          "internalType": "uint256",
          "name": "_artId",
          "type": "uint256"
        }
      ],
      "name": "approveAndMintArt",
      "outputs": [],
      "stateMutability": "nonpayable",
      "type": "function"
    },
    {
      "inputs": [],
      "name": "artCount",
      "outputs": [
        {
          "internalType": "uint256",
          "name": "",
          "type": "uint256"
        }
      ],
      "stateMutability": "view",
      "type": "function"
    },
    {
      "inputs": [
        {
          "internalType": "uint256",
          "name": "",
          "type": "uint256"
        }
      ],
      "name": "artPieces",
      "outputs": [
        {
          "internalType": "uint256",
          "name": "id",
          "type": "uint256"
        },
        {
          "internalType": "string",
          "name": "title",
          "type": "string"
        },
        {
          "internalType": "string",
          "name": "uri",
          "type": "string"
        },
        {
          "internalType": "string",
          "name": "description",
          "type": "string"
        },
        {
          "internalType": "address payable",
          "name": "artist",
          "type": "address"
        },
        {
          "internalType": "uint256",
          "name": "price",
          "type": "uint256"
        },
        {
          "internalType": "uint256",
          "name": "resalePrice",
          "type": "uint256"
        },
        {
          "internalType": "bool",
          "name": "isApproved",
          "type": "bool"
        },
        {
          "internalType": "bool",
          "name": "isSold",
          "type": "bool"
        },
        {
          "internalType": "bool",
          "name": "isMinted",
          "type": "bool"
        }
      ],
      "stateMutability": "view",
      "type": "function"
    },
    {
      "inputs": [
        {
          "internalType": "address",
          "name": "owner",
          "type": "address"
        }
      ],
      "name": "balanceOf",
      "outputs": [
        {
          "internalType": "uint256",
          "name": "",
          "type": "uint256"
        }
      ],
      "stateMutability": "view",
      "type": "function"
    },
    {
      "inputs": [
        {
          "internalType": "uint256",
          "name": "_artId",
          "type": "uint256"
        }
      ],
      "name": "buyArt",
      "outputs": [],
      "stateMutability": "payable",
      "type": "function"
    },
    {
      "inputs": [
        {
          "internalType": "uint256",
          "name": "tokenId",
          "type": "uint256"
        }
      ],
      "name": "getApproved",
      "outputs": [
        {
          "internalType": "address",
          "name": "",
          "type": "address"
        }
      ],
      "stateMutability": "view",
      "type": "function"
    },
    {
      "inputs": [
        {
          "internalType": "address",
          "name": "owner",
          "type": "address"
        },
        {
          "internalType": "address",
          "name": "operator",
          "type": "address"
        }
      ],
      "name": "isApprovedForAll",
      "outputs": [
        {
          "internalType": "bool",
          "name": "",
          "type": "bool"
        }
      ],
      "stateMutability": "view",
      "type": "function"
    },
    {
      "inputs": [
        {
          "internalType": "uint256",
          "name": "_artId",
          "type": "uint256"
        },
        {
          "internalType": "uint256",
          "name": "_price",
          "type": "uint256"
        }
      ],
      "name": "listArtForSale",
      "outputs": [],
      "stateMutability": "nonpayable",
      "type": "function"
    },
    {
      "inputs": [],
      "name": "name",
      "outputs": [
        {
          "internalType": "string",
          "name": "",
          "type": "string"
        }
      ],
      "stateMutability": "view",
      "type": "function"
    },
    {
      "inputs": [],
      "name": "owner",
      "outputs": [
        {
          "internalType": "address",
          "name": "",
          "type": "address"
        }
      ],
      "stateMutability": "view",
      "type": "function"
    },
    {
      "inputs": [
        {
          "internalType": "uint256",
          "name": "tokenId",
          "type": "uint256"
        }
      ],
      "name": "ownerOf",
      "outputs": [
        {
          "internalType": "address",
          "name": "",
          "type": "address"
        }
      ],
      "stateMutability": "view",
      "type": "function"
    },
    {
      "inputs": [],
      "name": "renounceOwnership",
      "outputs": [],
      "stateMutability": "nonpayable",
      "type": "function"
    },
    {
      "inputs": [
        {
          "internalType": "address",
          "name": "from",
          "type": "address"
        },
        {
          "internalType": "address",
          "name": "to",
          "type": "address"
        },
        {
          "internalType": "uint256",
          "name": "tokenId",
          "type": "uint256"
        }
      ],
      "name": "safeTransferFrom",
      "outputs": [],
      "stateMutability": "nonpayable",
      "type": "function"
    },
    {
      "inputs": [
        {
          "internalType": "address",
          "name": "from",
          "type": "address"
        },
        {
          "internalType": "address",
          "name": "to",
          "type": "address"
        },
        {
          "internalType": "uint256",
          "name": "tokenId",
          "type": "uint256"
        },
        {
          "internalType": "bytes",
          "name": "data",
          "type": "bytes"
        }
      ],
      "name": "safeTransferFrom",
      "outputs": [],
      "stateMutability": "nonpayable",
      "type": "function"
    },
    {
      "inputs": [
        {
          "internalType": "address",
          "name": "operator",
          "type": "address"
        },
        {
          "internalType": "bool",
          "name": "approved",
          "type": "bool"
        }
      ],
      "name": "setApprovalForAll",
      "outputs": [],
      "stateMutability": "nonpayable",
      "type": "function"
    },
    {
      "inputs": [
        {
          "internalType": "string",
          "name": "_title",
          "type": "string"
        },
        {
          "internalType": "string",
          "name": "_uri",
          "type": "string"
        },
        {
          "internalType": "uint256",
          "name": "_price",
          "type": "uint256"
        },
        {
          "internalType": "string",
          "name": "_description",
          "type": "string"
        }
      ],
      "name": "submitArt",
      "outputs": [],
      "stateMutability": "nonpayable",
      "type": "function"
    },
    {
      "inputs": [
        {
          "internalType": "bytes4",
          "name": "interfaceId",
          "type": "bytes4"
        }
      ],
      "name": "supportsInterface",
      "outputs": [
        {
          "internalType": "bool",
          "name": "",
          "type": "bool"
        }
      ],
      "stateMutability": "view",
      "type": "function"
    },
    {
      "inputs": [],
      "name": "symbol",
      "outputs": [
        {
          "internalType": "string",
          "name": "",
          "type": "string"
        }
      ],
      "stateMutability": "view",
      "type": "function"
    },
    {
      "inputs": [
        {
          "internalType": "uint256",
          "name": "tokenId",
          "type": "uint256"
        }
      ],
      "name": "tokenURI",
      "outputs": [
        {
          "internalType": "string",
          "name": "",
          "type": "string"
        }
      ],
      "stateMutability": "view",
      "type": "function"
    },
    {
      "inputs": [
        {
          "internalType": "address",
          "name": "from",
          "type": "address"
        },
        {
          "internalType": "address",
          "name": "to",
          "type": "address"
        },
        {
          "internalType": "uint256",
          "name": "tokenId",
          "type": "uint256"
        }
      ],
      "name": "transferFrom",
      "outputs": [],
      "stateMutability": "nonpayable",
      "type": "function"
    },
    {
      "inputs": [
        {
          "internalType": "address",
          "name": "newOwner",
          "type": "address"
        }
      ],
      "name": "transferOwnership",
      "outputs": [],
      "stateMutability": "nonpayable",
      "type": "function"
    },
    {
      "inputs": [],
      "name": "withdrawFunds",
      "outputs": [],
      "stateMutability": "nonpayable",
      "type": "function"
    },
    {
      "stateMutability": "payable",
      "type": "receive"
    }
  ],
  "bytecode": "0x6080604052600060095534801561001557600080fd5b506040516142d13803806142d1833981810160405281019061003791906102d4565b73784a2430a204ccb93fb9010008435e0a3cca56756040518060400160405280600981526020017f54756b6c617341727400000000000000000000000000000000000000000000008152506040518060400160405280600681526020017f54554b4c4153000000000000000000000000000000000000000000000000000081525081600090816100c79190610551565b5080600190816100d79190610551565b5050506001600781905550600073ffffffffffffffffffffffffffffffffffffffff168173ffffffffffffffffffffffffffffffffffffffff16036101545760006040517f1e4fbdf700000000000000000000000000000000000000000000000000000000815260040161014b9190610644565b60405180910390fd5b610163816101ab60201b60201c565b5080600b60006101000a81548173ffffffffffffffffffffffffffffffffffffffff021916908373ffffffffffffffffffffffffffffffffffffffff1602179055505061065f565b6000600860009054906101000a900473ffffffffffffffffffffffffffffffffffffffff16905081600860006101000a81548173ffffffffffffffffffffffffffffffffffffffff021916908373ffffffffffffffffffffffffffffffffffffffff1602179055508173ffffffffffffffffffffffffffffffffffffffff168173ffffffffffffffffffffffffffffffffffffffff167f8be0079c531659141344cd1fd0a4f28419497f9722a3daafe3b4186f6b6457e060405160405180910390a35050565b600080fd5b600073ffffffffffffffffffffffffffffffffffffffff82169050919050565b60006102a182610276565b9050919050565b6102b181610296565b81146102bc57600080fd5b50565b6000815190506102ce816102a8565b92915050565b6000602082840312156102ea576102e9610271565b5b60006102f8848285016102bf565b91505092915050565b600081519050919050565b7f4e487b7100000000000000000000000000000000000000000000000000000000600052604160045260246000fd5b7f4e487b7100000000000000000000000000000000000000000000000000000000600052602260045260246000fd5b6000600282049050600182168061038257607f821691505b6020821081036103955761039461033b565b5b50919050565b60008190508160005260206000209050919050565b60006020601f8301049050919050565b600082821b905092915050565b6000600883026103fd7fffffffffffffffffffffffffffffffffffffffffffffffffffffffffffffffff826103c0565b61040786836103c0565b95508019841693508086168417925050509392505050565b6000819050919050565b6000819050919050565b600061044e6104496104448461041f565b610429565b61041f565b9050919050565b6000819050919050565b61046883610433565b61047c61047482610455565b8484546103cd565b825550505050565b600090565b610491610484565b61049c81848461045f565b505050565b5b818110156104c0576104b5600082610489565b6001810190506104a2565b5050565b601f821115610505576104d68161039b565b6104df846103b0565b810160208510156104ee578190505b6105026104fa856103b0565b8301826104a1565b50505b505050565b600082821c905092915050565b60006105286000198460080261050a565b1980831691505092915050565b60006105418383610517565b9150826002028217905092915050565b61055a82610301565b67ffffffffffffffff8111156105735761057261030c565b5b61057d825461036a565b6105888282856104c4565b600060209050601f8311600181146105bb57600084156105a9578287015190505b6105b38582610535565b86555061061b565b601f1984166105c98661039b565b60005b828110156105f1578489015182556001820191506020850194506020810190506105cc565b8683101561060e578489015161060a601f891682610517565b8355505b6001600288020188555050505b505050505050565b600061062e82610276565b9050919050565b61063e81610623565b82525050565b60006020820190506106596000830184610635565b92915050565b613c638061066e6000396000f3fe60806040526004361061014f5760003560e01c8063715018a6116100b6578063c87b56dd1161006f578063c87b56dd146104fd578063d3b3e9b01461053a578063daad3bb214610565578063e985e9c51461058e578063f2fde38b146105cb578063fc7a900b146105f45761018f565b8063715018a6146104155780638da5cb5b1461042c57806395d89b411461045757806399cbb6bb14610482578063a22cb465146104ab578063b88d4fde146104d45761018f565b806336b19cd71161010857806336b19cd7146102d85780633ce82a2f1461030357806342842e0e146103495780635561275c146103725780636352211e1461039b57806370a08231146103d85761018f565b806301ffc9a7146101ca57806306fdde0314610207578063081812fc14610232578063095ea7b31461026f57806323b872dd1461029857806324600fc3146102c15761018f565b3661018f577f1e57e3bb474320be3d2c77138f75b7c3941292d647f5f9634e33a8e94e0e069b33346040516101859291906129ec565b60405180910390a1005b7f1e57e3bb474320be3d2c77138f75b7c3941292d647f5f9634e33a8e94e0e069b33346040516101c09291906129ec565b60405180910390a1005b3480156101d657600080fd5b506101f160048036038101906101ec9190612a81565b610610565b6040516101fe9190612ac9565b60405180910390f35b34801561021357600080fd5b5061021c610671565b6040516102299190612b74565b60405180910390f35b34801561023e57600080fd5b5061025960048036038101906102549190612bc2565b610703565b6040516102669190612bef565b60405180910390f35b34801561027b57600080fd5b5061029660048036038101906102919190612c36565b61071f565b005b3480156102a457600080fd5b506102bf60048036038101906102ba9190612c76565b610735565b005b3480156102cd57600080fd5b506102d6610837565b005b3480156102e457600080fd5b506102ed61088f565b6040516102fa9190612cea565b60405180910390f35b34801561030f57600080fd5b5061032a60048036038101906103259190612bc2565b6108b5565b6040516103409a99989796959493929190612d05565b60405180910390f35b34801561035557600080fd5b50610370600480360381019061036b9190612c76565b610ae8565b005b34801561037e57600080fd5b5061039960048036038101906103949190612bc2565b610b08565b005b3480156103a757600080fd5b506103c260048036038101906103bd9190612bc2565b610d61565b6040516103cf9190612bef565b60405180910390f35b3480156103e457600080fd5b506103ff60048036038101906103fa9190612db6565b610d73565b60405161040c9190612de3565b60405180910390f35b34801561042157600080fd5b5061042a610e2d565b005b34801561043857600080fd5b50610441610e41565b60405161044e9190612bef565b60405180910390f35b34801561046357600080fd5b5061046c610e6b565b6040516104799190612b74565b60405180910390f35b34801561048e57600080fd5b506104a960048036038101906104a49190612f33565b610efd565b005b3480156104b757600080fd5b506104d260048036038101906104cd919061301a565b6110e3565b005b3480156104e057600080fd5b506104fb60048036038101906104f691906130fb565b6110f9565b005b34801561050957600080fd5b50610524600480360381019061051f9190612bc2565b611116565b6040516105319190612b74565b60405180910390f35b34801561054657600080fd5b5061054f611229565b60405161055c9190612de3565b60405180910390f35b34801561057157600080fd5b5061058c6004803603810190610587919061317e565b61122f565b005b34801561059a57600080fd5b506105b560048036038101906105b091906131be565b611320565b6040516105c29190612ac9565b60405180910390f35b3480156105d757600080fd5b506105f260048036038101906105ed9190612db6565b6113b4565b005b61060e60048036038101906106099190612bc2565b61143a565b005b6000634906490660e01b7bffffffffffffffffffffffffffffffffffffffffffffffffffffffff1916827bffffffffffffffffffffffffffffffffffffffffffffffffffffffff1916148061066a575061066982611766565b5b9050919050565b6060600080546106809061322d565b80601f01602080910402602001604051908101604052809291908181526020018280546106ac9061322d565b80156106f95780601f106106ce576101008083540402835291602001916106f9565b820191906000526020600020905b8154815290600101906020018083116106dc57829003601f168201915b5050505050905090565b600061070e82611848565b50610718826118d0565b9050919050565b610731828261072c61190d565b611915565b5050565b600073ffffffffffffffffffffffffffffffffffffffff168273ffffffffffffffffffffffffffffffffffffffff16036107a75760006040517f64a0ae9200000000000000000000000000000000000000000000000000000000815260040161079e9190612bef565b60405180910390fd5b60006107bb83836107b661190d565b611927565b90508373ffffffffffffffffffffffffffffffffffffffff168173ffffffffffffffffffffffffffffffffffffffff1614610831578382826040517f64283d7b0000000000000000000000000000000000000000000000000000000081526004016108289392919061325e565b60405180910390fd5b50505050565b61083f611b41565b610847610e41565b73ffffffffffffffffffffffffffffffffffffffff166108fc479081150290604051600060405180830381858888f1935050505015801561088c573d6000803e3d6000fd5b50565b600b60009054906101000a900473ffffffffffffffffffffffffffffffffffffffff1681565b600a6020528060005260406000206000915090508060000154908060010180546108de9061322d565b80601f016020809104026020016040519081016040528092919081815260200182805461090a9061322d565b80156109575780601f1061092c57610100808354040283529160200191610957565b820191906000526020600020905b81548152906001019060200180831161093a57829003601f168201915b50505050509080600201805461096c9061322d565b80601f01602080910402602001604051908101604052809291908181526020018280546109989061322d565b80156109e55780601f106109ba576101008083540402835291602001916109e5565b820191906000526020600020905b8154815290600101906020018083116109c857829003601f168201915b5050505050908060030180546109fa9061322d565b80601f0160208091040260200160405190810160405280929190818152602001828054610a269061322d565b8015610a735780601f10610a4857610100808354040283529160200191610a73565b820191906000526020600020905b815481529060010190602001808311610a5657829003601f168201915b5050505050908060040160009054906101000a900473ffffffffffffffffffffffffffffffffffffffff16908060050154908060060154908060070160009054906101000a900460ff16908060070160019054906101000a900460ff16908060070160029054906101000a900460ff1690508a565b610b03838383604051806020016040528060008152506110f9565b505050565b610b10611b41565b6000600a600083815260200190815260200160002090508060070160009054906101000a900460ff1615610b79576040517f08c379a0000000000000000000000000000000000000000000000000000000008152600401610b70906132e1565b60405180910390fd5b8060070160019054906101000a900460ff1615610bcb576040517f08c379a0000000000000000000000000000000000000000000000000000000008152600401610bc29061334d565b60405180910390fd5b60018160070160006101000a81548160ff0219169083151502179055507f7b723b59fe1a1edaac6affe244e4a1afd77d2fc276cd2ac8c3c0ebeab1f1c5e682604051610c179190612de3565b60405180910390a1610c4d8160040160009054906101000a900473ffffffffffffffffffffffffffffffffffffffff1683611bc8565b610ce382826002018054610c609061322d565b80601f0160208091040260200160405190810160405280929190818152602001828054610c8c9061322d565b8015610cd95780601f10610cae57610100808354040283529160200191610cd9565b820191906000526020600020905b815481529060010190602001808311610cbc57829003601f168201915b5050505050611be6565b60018160070160026101000a81548160ff0219169083151502179055507ff08bda8ccd87fe60185b01d94217372ebd591e84a7ada81159f8f9aa38fb7ccf828260040160009054906101000a900473ffffffffffffffffffffffffffffffffffffffff16604051610d559291906133cc565b60405180910390a15050565b6000610d6c82611848565b9050919050565b60008073ffffffffffffffffffffffffffffffffffffffff168273ffffffffffffffffffffffffffffffffffffffff1603610de65760006040517f89c62b64000000000000000000000000000000000000000000000000000000008152600401610ddd9190612bef565b60405180910390fd5b600360008373ffffffffffffffffffffffffffffffffffffffff1673ffffffffffffffffffffffffffffffffffffffff168152602001908152602001600020549050919050565b610e35611b41565b610e3f6000611c42565b565b6000600860009054906101000a900473ffffffffffffffffffffffffffffffffffffffff16905090565b606060018054610e7a9061322d565b80601f0160208091040260200160405190810160405280929190818152602001828054610ea69061322d565b8015610ef35780601f10610ec857610100808354040283529160200191610ef3565b820191906000526020600020905b815481529060010190602001808311610ed657829003601f168201915b5050505050905090565b60096000815480929190610f1090613424565b919050555060405180610140016040528060095481526020018581526020018481526020018281526020013373ffffffffffffffffffffffffffffffffffffffff1681526020018381526020016000815260200160001515815260200160001515815260200160001515815250600a60006009548152602001908152602001600020600082015181600001556020820151816001019081610fb1919061360e565b506040820151816002019081610fc7919061360e565b506060820151816003019081610fdd919061360e565b5060808201518160040160006101000a81548173ffffffffffffffffffffffffffffffffffffffff021916908373ffffffffffffffffffffffffffffffffffffffff16021790555060a0820151816005015560c0820151816006015560e08201518160070160006101000a81548160ff0219169083151502179055506101008201518160070160016101000a81548160ff0219169083151502179055506101208201518160070160026101000a81548160ff0219169083151502179055509050507fb5e5e1521a21ea9c148cca21ea6cc66a2a5d4e9b649004405427c4ed63e64e586009548583336040516110d594939291906136e0565b60405180910390a150505050565b6110f56110ee61190d565b8383611d08565b5050565b611104848484610735565b61111084848484611e77565b50505050565b606061112182611848565b5060006006600084815260200190815260200160002080546111429061322d565b80601f016020809104026020016040519081016040528092919081815260200182805461116e9061322d565b80156111bb5780601f10611190576101008083540402835291602001916111bb565b820191906000526020600020905b81548152906001019060200180831161119e57829003601f168201915b5050505050905060006111cc61202e565b905060008151036111e1578192505050611224565b6000825111156112165780826040516020016111fe92919061376f565b60405160208183030381529060405292505050611224565b61121f84612045565b925050505b919050565b60095481565b3373ffffffffffffffffffffffffffffffffffffffff1661124f83610d61565b73ffffffffffffffffffffffffffffffffffffffff16146112a5576040517f08c379a000000000000000000000000000000000000000000000000000000000815260040161129c90613805565b60405180910390fd5b6000600a6000848152602001908152602001600020905081816006018190555060008160070160016101000a81548160ff0219169083151502179055507f783718aec0a621330cd1caad6dcafe4b412edc214b309999976087c44767fa518383604051611313929190613825565b60405180910390a1505050565b6000600560008473ffffffffffffffffffffffffffffffffffffffff1673ffffffffffffffffffffffffffffffffffffffff16815260200190815260200160002060008373ffffffffffffffffffffffffffffffffffffffff1673ffffffffffffffffffffffffffffffffffffffff16815260200190815260200160002060009054906101000a900460ff16905092915050565b6113bc611b41565b600073ffffffffffffffffffffffffffffffffffffffff168173ffffffffffffffffffffffffffffffffffffffff160361142e5760006040517f1e4fbdf70000000000000000000000000000000000000000000000000000000081526004016114259190612bef565b60405180910390fd5b61143781611c42565b50565b6114426120ae565b6000600a600083815260200190815260200160002090508060070160009054906101000a900460ff166114aa576040517f08c379a00000000000000000000000000000000000000000000000000000000081526004016114a19061389a565b60405180910390fd5b8060070160029054906101000a900460ff166114fb576040517f08c379a00000000000000000000000000000000000000000000000000000000081526004016114f290613906565b60405180910390fd5b8060070160019054906101000a900460ff161561154d576040517f08c379a000000000000000000000000000000000000000000000000000000000815260040161154490613972565b60405180910390fd5b8060050154341015611594576040517f08c379a000000000000000000000000000000000000000000000000000000000815260040161158b906139de565b60405180910390fd5b60008160050154346115a691906139fe565b905060008111156115f9573373ffffffffffffffffffffffffffffffffffffffff166108fc829081150290604051600060405180830381858888f193505050501580156115f7573d6000803e3d6000fd5b505b60008260040160009054906101000a900473ffffffffffffffffffffffffffffffffffffffff1673ffffffffffffffffffffffffffffffffffffffff16836005015460405161164790613a63565b60006040518083038185875af1925050503d8060008114611684576040519150601f19603f3d011682016040523d82523d6000602084013e611689565b606091505b50509050806116cd576040517f08c379a00000000000000000000000000000000000000000000000000000000081526004016116c490613ac4565b60405180910390fd5b60018360070160016101000a81548160ff0219169083151502179055506117198360040160009054906101000a900473ffffffffffffffffffffffffffffffffffffffff1633866120f4565b7f27b92c6c7afad1170d67a0beaa899639c14901a7fef1edd03cfb73dd43a39b7b8433856005015460405161175093929190613ae4565b60405180910390a1505050611763612261565b50565b60007f80ac58cd000000000000000000000000000000000000000000000000000000007bffffffffffffffffffffffffffffffffffffffffffffffffffffffff1916827bffffffffffffffffffffffffffffffffffffffffffffffffffffffff1916148061183157507f5b5e139f000000000000000000000000000000000000000000000000000000007bffffffffffffffffffffffffffffffffffffffffffffffffffffffff1916827bffffffffffffffffffffffffffffffffffffffffffffffffffffffff1916145b8061184157506118408261226b565b5b9050919050565b600080611854836122d5565b9050600073ffffffffffffffffffffffffffffffffffffffff168173ffffffffffffffffffffffffffffffffffffffff16036118c757826040517f7e2732890000000000000000000000000000000000000000000000000000000081526004016118be9190612de3565b60405180910390fd5b80915050919050565b60006004600083815260200190815260200160002060009054906101000a900473ffffffffffffffffffffffffffffffffffffffff169050919050565b600033905090565b6119228383836001612312565b505050565b600080611933846122d5565b9050600073ffffffffffffffffffffffffffffffffffffffff168373ffffffffffffffffffffffffffffffffffffffff1614611975576119748184866124d7565b5b600073ffffffffffffffffffffffffffffffffffffffff168173ffffffffffffffffffffffffffffffffffffffff1614611a06576119b7600085600080612312565b6001600360008373ffffffffffffffffffffffffffffffffffffffff1673ffffffffffffffffffffffffffffffffffffffff168152602001908152602001600020600082825403925050819055505b600073ffffffffffffffffffffffffffffffffffffffff168573ffffffffffffffffffffffffffffffffffffffff1614611a89576001600360008773ffffffffffffffffffffffffffffffffffffffff1673ffffffffffffffffffffffffffffffffffffffff168152602001908152602001600020600082825401925050819055505b846002600086815260200190815260200160002060006101000a81548173ffffffffffffffffffffffffffffffffffffffff021916908373ffffffffffffffffffffffffffffffffffffffff160217905550838573ffffffffffffffffffffffffffffffffffffffff168273ffffffffffffffffffffffffffffffffffffffff167fddf252ad1be2c89b69c2b068fc378daa952ba7f163c4a11628f55a4df523b3ef60405160405180910390a4809150509392505050565b611b4961190d565b73ffffffffffffffffffffffffffffffffffffffff16611b67610e41565b73ffffffffffffffffffffffffffffffffffffffff1614611bc657611b8a61190d565b6040517f118cdaa7000000000000000000000000000000000000000000000000000000008152600401611bbd9190612bef565b60405180910390fd5b565b611be282826040518060200160405280600081525061259b565b5050565b80600660008481526020019081526020016000209081611c06919061360e565b507ff8e1a15aba9398e019f0b49df1a4fde98ee17ae345cb5f6b5e2c27f5033e8ce782604051611c369190612de3565b60405180910390a15050565b6000600860009054906101000a900473ffffffffffffffffffffffffffffffffffffffff16905081600860006101000a81548173ffffffffffffffffffffffffffffffffffffffff021916908373ffffffffffffffffffffffffffffffffffffffff1602179055508173ffffffffffffffffffffffffffffffffffffffff168173ffffffffffffffffffffffffffffffffffffffff167f8be0079c531659141344cd1fd0a4f28419497f9722a3daafe3b4186f6b6457e060405160405180910390a35050565b600073ffffffffffffffffffffffffffffffffffffffff168273ffffffffffffffffffffffffffffffffffffffff1603611d7957816040517f5b08ba18000000000000000000000000000000000000000000000000000000008152600401611d709190612bef565b60405180910390fd5b80600560008573ffffffffffffffffffffffffffffffffffffffff1673ffffffffffffffffffffffffffffffffffffffff16815260200190815260200160002060008473ffffffffffffffffffffffffffffffffffffffff1673ffffffffffffffffffffffffffffffffffffffff16815260200190815260200160002060006101000a81548160ff0219169083151502179055508173ffffffffffffffffffffffffffffffffffffffff168373ffffffffffffffffffffffffffffffffffffffff167f17307eab39ab6107e8899845ad3d59bd9653f200f220920489ca2b5937696c3183604051611e6a9190612ac9565b60405180910390a3505050565b60008373ffffffffffffffffffffffffffffffffffffffff163b1115612028578273ffffffffffffffffffffffffffffffffffffffff1663150b7a02611ebb61190d565b8685856040518563ffffffff1660e01b8152600401611edd9493929190613b70565b6020604051808303816000875af1925050508015611f1957506040513d601f19601f82011682018060405250810190611f169190613bd1565b60015b611f9d573d8060008114611f49576040519150601f19603f3d011682016040523d82523d6000602084013e611f4e565b606091505b506000815103611f9557836040517f64a0ae92000000000000000000000000000000000000000000000000000000008152600401611f8c9190612bef565b60405180910390fd5b805181602001fd5b63150b7a0260e01b7bffffffffffffffffffffffffffffffffffffffffffffffffffffffff1916817bffffffffffffffffffffffffffffffffffffffffffffffffffffffff19161461202657836040517f64a0ae9200000000000000000000000000000000000000000000000000000000815260040161201d9190612bef565b60405180910390fd5b505b50505050565b606060405180602001604052806000815250905090565b606061205082611848565b50600061205b61202e565b9050600081511161207b57604051806020016040528060008152506120a6565b80612085846125b7565b60405160200161209692919061376f565b6040516020818303038152906040525b915050919050565b6002600754036120ea576040517f3ee5aeb500000000000000000000000000000000000000000000000000000000815260040160405180910390fd5b6002600781905550565b600073ffffffffffffffffffffffffffffffffffffffff168273ffffffffffffffffffffffffffffffffffffffff16036121665760006040517f64a0ae9200000000000000000000000000000000000000000000000000000000815260040161215d9190612bef565b60405180910390fd5b600061217483836000611927565b9050600073ffffffffffffffffffffffffffffffffffffffff168173ffffffffffffffffffffffffffffffffffffffff16036121e757816040517f7e2732890000000000000000000000000000000000000000000000000000000081526004016121de9190612de3565b60405180910390fd5b8373ffffffffffffffffffffffffffffffffffffffff168173ffffffffffffffffffffffffffffffffffffffff161461225b578382826040517f64283d7b0000000000000000000000000000000000000000000000000000000081526004016122529392919061325e565b60405180910390fd5b50505050565b6001600781905550565b60007f01ffc9a7000000000000000000000000000000000000000000000000000000007bffffffffffffffffffffffffffffffffffffffffffffffffffffffff1916827bffffffffffffffffffffffffffffffffffffffffffffffffffffffff1916149050919050565b60006002600083815260200190815260200160002060009054906101000a900473ffffffffffffffffffffffffffffffffffffffff169050919050565b808061234b5750600073ffffffffffffffffffffffffffffffffffffffff168273ffffffffffffffffffffffffffffffffffffffff1614155b1561247f57600061235b84611848565b9050600073ffffffffffffffffffffffffffffffffffffffff168373ffffffffffffffffffffffffffffffffffffffff16141580156123c657508273ffffffffffffffffffffffffffffffffffffffff168173ffffffffffffffffffffffffffffffffffffffff1614155b80156123d957506123d78184611320565b155b1561241b57826040517fa9fbf51f0000000000000000000000000000000000000000000000000000000081526004016124129190612bef565b60405180910390fd5b811561247d57838573ffffffffffffffffffffffffffffffffffffffff168273ffffffffffffffffffffffffffffffffffffffff167f8c5be1e5ebec7d5bd14f71427d1e84f3dd0314c0f7b2291e5b200ac8c7c3b92560405160405180910390a45b505b836004600085815260200190815260200160002060006101000a81548173ffffffffffffffffffffffffffffffffffffffff021916908373ffffffffffffffffffffffffffffffffffffffff16021790555050505050565b6124e2838383612685565b61259657600073ffffffffffffffffffffffffffffffffffffffff168373ffffffffffffffffffffffffffffffffffffffff160361255757806040517f7e27328900000000000000000000000000000000000000000000000000000000815260040161254e9190612de3565b60405180910390fd5b81816040517f177e802f00000000000000000000000000000000000000000000000000000000815260040161258d9291906129ec565b60405180910390fd5b505050565b6125a58383612746565b6125b26000848484611e77565b505050565b6060600060016125c68461283f565b01905060008167ffffffffffffffff8111156125e5576125e4612e08565b5b6040519080825280601f01601f1916602001820160405280156126175781602001600182028036833780820191505090505b509050600082602001820190505b60011561267a578080600190039150507f3031323334353637383961626364656600000000000000000000000000000000600a86061a8153600a858161266e5761266d613bfe565b5b04945060008503612625575b819350505050919050565b60008073ffffffffffffffffffffffffffffffffffffffff168373ffffffffffffffffffffffffffffffffffffffff161415801561273d57508273ffffffffffffffffffffffffffffffffffffffff168473ffffffffffffffffffffffffffffffffffffffff1614806126fe57506126fd8484611320565b5b8061273c57508273ffffffffffffffffffffffffffffffffffffffff16612724836118d0565b73ffffffffffffffffffffffffffffffffffffffff16145b5b90509392505050565b600073ffffffffffffffffffffffffffffffffffffffff168273ffffffffffffffffffffffffffffffffffffffff16036127b85760006040517f64a0ae920000000000000000000000000000000000000000000000000000000081526004016127af9190612bef565b60405180910390fd5b60006127c683836000611927565b9050600073ffffffffffffffffffffffffffffffffffffffff168173ffffffffffffffffffffffffffffffffffffffff161461283a5760006040517f73c6ac6e0000000000000000000000000000000000000000000000000000000081526004016128319190612bef565b60405180910390fd5b505050565b600080600090507a184f03e93ff9f4daa797ed6e38ed64bf6a1f010000000000000000831061289d577a184f03e93ff9f4daa797ed6e38ed64bf6a1f010000000000000000838161289357612892613bfe565b5b0492506040810190505b6d04ee2d6d415b85acef810000000083106128da576d04ee2d6d415b85acef810000000083816128d0576128cf613bfe565b5b0492506020810190505b662386f26fc10000831061290957662386f26fc1000083816128ff576128fe613bfe565b5b0492506010810190505b6305f5e1008310612932576305f5e100838161292857612927613bfe565b5b0492506008810190505b612710831061295757612710838161294d5761294c613bfe565b5b0492506004810190505b6064831061297a57606483816129705761296f613bfe565b5b0492506002810190505b600a8310612989576001810190505b80915050919050565b600073ffffffffffffffffffffffffffffffffffffffff82169050919050565b60006129bd82612992565b9050919050565b6129cd816129b2565b82525050565b6000819050919050565b6129e6816129d3565b82525050565b6000604082019050612a0160008301856129c4565b612a0e60208301846129dd565b9392505050565b6000604051905090565b600080fd5b600080fd5b60007fffffffff0000000000000000000000000000000000000000000000000000000082169050919050565b612a5e81612a29565b8114612a6957600080fd5b50565b600081359050612a7b81612a55565b92915050565b600060208284031215612a9757612a96612a1f565b5b6000612aa584828501612a6c565b91505092915050565b60008115159050919050565b612ac381612aae565b82525050565b6000602082019050612ade6000830184612aba565b92915050565b600081519050919050565b600082825260208201905092915050565b60005b83811015612b1e578082015181840152602081019050612b03565b60008484015250505050565b6000601f19601f8301169050919050565b6000612b4682612ae4565b612b508185612aef565b9350612b60818560208601612b00565b612b6981612b2a565b840191505092915050565b60006020820190508181036000830152612b8e8184612b3b565b905092915050565b612b9f816129d3565b8114612baa57600080fd5b50565b600081359050612bbc81612b96565b92915050565b600060208284031215612bd857612bd7612a1f565b5b6000612be684828501612bad565b91505092915050565b6000602082019050612c0460008301846129c4565b92915050565b612c13816129b2565b8114612c1e57600080fd5b50565b600081359050612c3081612c0a565b92915050565b60008060408385031215612c4d57612c4c612a1f565b5b6000612c5b85828601612c21565b9250506020612c6c85828601612bad565b9150509250929050565b600080600060608486031215612c8f57612c8e612a1f565b5b6000612c9d86828701612c21565b9350506020612cae86828701612c21565b9250506040612cbf86828701612bad565b9150509250925092565b6000612cd482612992565b9050919050565b612ce481612cc9565b82525050565b6000602082019050612cff6000830184612cdb565b92915050565b600061014082019050612d1b600083018d6129dd565b8181036020830152612d2d818c612b3b565b90508181036040830152612d41818b612b3b565b90508181036060830152612d55818a612b3b565b9050612d646080830189612cdb565b612d7160a08301886129dd565b612d7e60c08301876129dd565b612d8b60e0830186612aba565b612d99610100830185612aba565b612da7610120830184612aba565b9b9a5050505050505050505050565b600060208284031215612dcc57612dcb612a1f565b5b6000612dda84828501612c21565b91505092915050565b6000602082019050612df860008301846129dd565b92915050565b600080fd5b600080fd5b7f4e487b7100000000000000000000000000000000000000000000000000000000600052604160045260246000fd5b612e4082612b2a565b810181811067ffffffffffffffff82111715612e5f57612e5e612e08565b5b80604052505050565b6000612e72612a15565b9050612e7e8282612e37565b919050565b600067ffffffffffffffff821115612e9e57612e9d612e08565b5b612ea782612b2a565b9050602081019050919050565b82818337600083830152505050565b6000612ed6612ed184612e83565b612e68565b905082815260208101848484011115612ef257612ef1612e03565b5b612efd848285612eb4565b509392505050565b600082601f830112612f1a57612f19612dfe565b5b8135612f2a848260208601612ec3565b91505092915050565b60008060008060808587031215612f4d57612f4c612a1f565b5b600085013567ffffffffffffffff811115612f6b57612f6a612a24565b5b612f7787828801612f05565b945050602085013567ffffffffffffffff811115612f9857612f97612a24565b5b612fa487828801612f05565b9350506040612fb587828801612bad565b925050606085013567ffffffffffffffff811115612fd657612fd5612a24565b5b612fe287828801612f05565b91505092959194509250565b612ff781612aae565b811461300257600080fd5b50565b60008135905061301481612fee565b92915050565b6000806040838503121561303157613030612a1f565b5b600061303f85828601612c21565b925050602061305085828601613005565b9150509250929050565b600067ffffffffffffffff82111561307557613074612e08565b5b61307e82612b2a565b9050602081019050919050565b600061309e6130998461305a565b612e68565b9050828152602081018484840111156130ba576130b9612e03565b5b6130c5848285612eb4565b509392505050565b600082601f8301126130e2576130e1612dfe565b5b81356130f284826020860161308b565b91505092915050565b6000806000806080858703121561311557613114612a1f565b5b600061312387828801612c21565b945050602061313487828801612c21565b935050604061314587828801612bad565b925050606085013567ffffffffffffffff81111561316657613165612a24565b5b613172878288016130cd565b91505092959194509250565b6000806040838503121561319557613194612a1f565b5b60006131a385828601612bad565b92505060206131b485828601612bad565b9150509250929050565b600080604083850312156131d5576131d4612a1f565b5b60006131e385828601612c21565b92505060206131f485828601612c21565b9150509250929050565b7f4e487b7100000000000000000000000000000000000000000000000000000000600052602260045260246000fd5b6000600282049050600182168061324557607f821691505b602082108103613258576132576131fe565b5b50919050565b600060608201905061327360008301866129c4565b61328060208301856129dd565b61328d60408301846129c4565b949350505050565b7f417274776f726b20697320616c726561647920617070726f7665640000000000600082015250565b60006132cb601b83612aef565b91506132d682613295565b602082019050919050565b600060208201905081810360008301526132fa816132be565b9050919050565b7f43616e6e6f7420617070726f766520736f6c6420617274776f726b0000000000600082015250565b6000613337601b83612aef565b915061334282613301565b602082019050919050565b600060208201905081810360008301526133668161332a565b9050919050565b6000819050919050565b600061339261338d61338884612992565b61336d565b612992565b9050919050565b60006133a482613377565b9050919050565b60006133b682613399565b9050919050565b6133c6816133ab565b82525050565b60006040820190506133e160008301856129dd565b6133ee60208301846133bd565b9392505050565b7f4e487b7100000000000000000000000000000000000000000000000000000000600052601160045260246000fd5b600061342f826129d3565b91507fffffffffffffffffffffffffffffffffffffffffffffffffffffffffffffffff8203613461576134606133f5565b5b600182019050919050565b60008190508160005260206000209050919050565b60006020601f8301049050919050565b600082821b905092915050565b6000600883026134ce7fffffffffffffffffffffffffffffffffffffffffffffffffffffffffffffffff82613491565b6134d88683613491565b95508019841693508086168417925050509392505050565b600061350b613506613501846129d3565b61336d565b6129d3565b9050919050565b6000819050919050565b613525836134f0565b61353961353182613512565b84845461349e565b825550505050565b600090565b61354e613541565b61355981848461351c565b505050565b5b8181101561357d57613572600082613546565b60018101905061355f565b5050565b601f8211156135c2576135938161346c565b61359c84613481565b810160208510156135ab578190505b6135bf6135b785613481565b83018261355e565b50505b505050565b600082821c905092915050565b60006135e5600019846008026135c7565b1980831691505092915050565b60006135fe83836135d4565b9150826002028217905092915050565b61361782612ae4565b67ffffffffffffffff8111156136305761362f612e08565b5b61363a825461322d565b613645828285613581565b600060209050601f8311600181146136785760008415613666578287015190505b61367085826135f2565b8655506136d8565b601f1984166136868661346c565b60005b828110156136ae57848901518255600182019150602085019450602081019050613689565b868310156136cb57848901516136c7601f8916826135d4565b8355505b6001600288020188555050505b505050505050565b60006080820190506136f560008301876129dd565b81810360208301526137078186612b3b565b9050818103604083015261371b8185612b3b565b905061372a60608301846129c4565b95945050505050565b600081905092915050565b600061374982612ae4565b6137538185613733565b9350613763818560208601612b00565b80840191505092915050565b600061377b828561373e565b9150613787828461373e565b91508190509392505050565b7f4f6e6c7920746865206f776e65722063616e206c69737420746865206172742060008201527f666f722073616c65000000000000000000000000000000000000000000000000602082015250565b60006137ef602883612aef565b91506137fa82613793565b604082019050919050565b6000602082019050818103600083015261381e816137e2565b9050919050565b600060408201905061383a60008301856129dd565b61384760208301846129dd565b9392505050565b7f417274776f726b206e6f7420617070726f766564000000000000000000000000600082015250565b6000613884601483612aef565b915061388f8261384e565b602082019050919050565b600060208201905081810360008301526138b381613877565b9050919050565b7f417274776f726b206e6f74206d696e74656420617320616e204e465420796574600082015250565b60006138f0602083612aef565b91506138fb826138ba565b602082019050919050565b6000602082019050818103600083015261391f816138e3565b9050919050565b7f417274776f726b20697320616c726561647920736f6c64000000000000000000600082015250565b600061395c601783612aef565b915061396782613926565b602082019050919050565b6000602082019050818103600083015261398b8161394f565b9050919050565b7f496e73756666696369656e742066756e64730000000000000000000000000000600082015250565b60006139c8601283612aef565b91506139d382613992565b602082019050919050565b600060208201905081810360008301526139f7816139bb565b9050919050565b6000613a09826129d3565b9150613a14836129d3565b9250828203905081811115613a2c57613a2b6133f5565b5b92915050565b600081905092915050565b50565b6000613a4d600083613a32565b9150613a5882613a3d565b600082019050919050565b6000613a6e82613a40565b9150819050919050565b7f5061796d656e7420746f20617274697374206661696c65640000000000000000600082015250565b6000613aae601883612aef565b9150613ab982613a78565b602082019050919050565b60006020820190508181036000830152613add81613aa1565b9050919050565b6000606082019050613af960008301866129dd565b613b0660208301856129c4565b613b1360408301846129dd565b949350505050565b600081519050919050565b600082825260208201905092915050565b6000613b4282613b1b565b613b4c8185613b26565b9350613b5c818560208601612b00565b613b6581612b2a565b840191505092915050565b6000608082019050613b8560008301876129c4565b613b9260208301866129c4565b613b9f60408301856129dd565b8181036060830152613bb18184613b37565b905095945050505050565b600081519050613bcb81612a55565b92915050565b600060208284031215613be757613be6612a1f565b5b6000613bf584828501613bbc565b91505092915050565b7f4e487b7100000000000000000000000000000000000000000000000000000000600052601260045260246000fdfea264697066735822122081cc17f2ba19a60de74a3309c9dc343a80ff4e5fcbf1f00f303e4a5a82888f2c64736f6c634300081b0033",
  "linkReferences": {},
  "deployedLinkReferences": {}
}